{
	"data": {
		"bytecode": {
			"linkReferences": {},
			"object": "608060405234801561000f575f80fd5b50335f806101000a81548173ffffffffffffffffffffffffffffffffffffffff021916908373ffffffffffffffffffffffffffffffffffffffff16021790555061057b8061005c5f395ff3fe608060405260043610610028575f3560e01c806357ea89b61461002c57806392d282c114610036575b5f80fd5b610034610040565b005b61003e6100fb565b005b5f8054906101000a900473ffffffffffffffffffffffffffffffffffffffff1673ffffffffffffffffffffffffffffffffffffffff163373ffffffffffffffffffffffffffffffffffffffff1614610096575f80fd5b5f8054906101000a900473ffffffffffffffffffffffffffffffffffffffff1673ffffffffffffffffffffffffffffffffffffffff166108fc4790811502906040515f60405180830381858888f193505050501580156100f8573d5f803e3d5ffd5b50565b3460015f3373ffffffffffffffffffffffffffffffffffffffff1673ffffffffffffffffffffffffffffffffffffffff1681526020019081526020015f20819055505f6802b5e3af16b188000090508061015434610198565b1215610195576040517f08c379a000000000000000000000000000000000000000000000000000000000815260040161018c906102cf565b60405180910390fd5b50565b5f806101a26101d0565b90505f670de0b6b3a764000084836101ba9190610323565b6101c491906103c6565b90508092505050919050565b5f8073694aa1769357215de4fac081bf1f309adc32530690505f8173ffffffffffffffffffffffffffffffffffffffff1663feaf968c6040518163ffffffff1660e01b815260040160a060405180830381865afa158015610233573d5f803e3d5ffd5b505050506040513d601f19601f8201168201806040525081019061025791906104ce565b5050509150506402540be4008161026e9190610323565b9250505090565b5f82825260208201905092915050565b7f596f75206e65656420746f207370656e64206d6f7265206574680000000000005f82015250565b5f6102b9601a83610275565b91506102c482610285565b602082019050919050565b5f6020820190508181035f8301526102e6816102ad565b9050919050565b5f819050919050565b7f4e487b71000000000000000000000000000000000000000000000000000000005f52601160045260245ffd5b5f61032d826102ed565b9150610338836102ed565b9250828202610346816102ed565b91507f800000000000000000000000000000000000000000000000000000000000000084145f8412161561037d5761037c6102f6565b5b8282058414831517610392576103916102f6565b5b5092915050565b7f4e487b71000000000000000000000000000000000000000000000000000000005f52601260045260245ffd5b5f6103d0826102ed565b91506103db836102ed565b9250826103eb576103ea610399565b5b60015f0383147f800000000000000000000000000000000000000000000000000000000000000083141615610423576104226102f6565b5b828205905092915050565b5f80fd5b5f69ffffffffffffffffffff82169050919050565b61045081610432565b811461045a575f80fd5b50565b5f8151905061046b81610447565b92915050565b61047a816102ed565b8114610484575f80fd5b50565b5f8151905061049581610471565b92915050565b5f819050919050565b6104ad8161049b565b81146104b7575f80fd5b50565b5f815190506104c8816104a4565b92915050565b5f805f805f60a086880312156104e7576104e661042e565b5b5f6104f48882890161045d565b955050602061050588828901610487565b9450506040610516888289016104ba565b9350506060610527888289016104ba565b92505060806105388882890161045d565b915050929550929590935056fea2646970667358221220418f2745cb854ffe19562c6aa72abda2dbd632c6be9afddd1c1acaa4e663bd1a64736f6c63430008160033",
			"opcodes": "PUSH1 0x80 PUSH1 0x40 MSTORE CALLVALUE DUP1 ISZERO PUSH2 0xF JUMPI PUSH0 DUP1 REVERT JUMPDEST POP CALLER PUSH0 DUP1 PUSH2 0x100 EXP DUP2 SLOAD DUP2 PUSH20 0xFFFFFFFFFFFFFFFFFFFFFFFFFFFFFFFFFFFFFFFF MUL NOT AND SWAP1 DUP4 PUSH20 0xFFFFFFFFFFFFFFFFFFFFFFFFFFFFFFFFFFFFFFFF AND MUL OR SWAP1 SSTORE POP PUSH2 0x57B DUP1 PUSH2 0x5C PUSH0 CODECOPY PUSH0 RETURN INVALID PUSH1 0x80 PUSH1 0x40 MSTORE PUSH1 0x4 CALLDATASIZE LT PUSH2 0x28 JUMPI PUSH0 CALLDATALOAD PUSH1 0xE0 SHR DUP1 PUSH4 0x57EA89B6 EQ PUSH2 0x2C JUMPI DUP1 PUSH4 0x92D282C1 EQ PUSH2 0x36 JUMPI JUMPDEST PUSH0 DUP1 REVERT JUMPDEST PUSH2 0x34 PUSH2 0x40 JUMP JUMPDEST STOP JUMPDEST PUSH2 0x3E PUSH2 0xFB JUMP JUMPDEST STOP JUMPDEST PUSH0 DUP1 SLOAD SWAP1 PUSH2 0x100 EXP SWAP1 DIV PUSH20 0xFFFFFFFFFFFFFFFFFFFFFFFFFFFFFFFFFFFFFFFF AND PUSH20 0xFFFFFFFFFFFFFFFFFFFFFFFFFFFFFFFFFFFFFFFF AND CALLER PUSH20 0xFFFFFFFFFFFFFFFFFFFFFFFFFFFFFFFFFFFFFFFF AND EQ PUSH2 0x96 JUMPI PUSH0 DUP1 REVERT JUMPDEST PUSH0 DUP1 SLOAD SWAP1 PUSH2 0x100 EXP SWAP1 DIV PUSH20 0xFFFFFFFFFFFFFFFFFFFFFFFFFFFFFFFFFFFFFFFF AND PUSH20 0xFFFFFFFFFFFFFFFFFFFFFFFFFFFFFFFFFFFFFFFF AND PUSH2 0x8FC SELFBALANCE SWAP1 DUP2 ISZERO MUL SWAP1 PUSH1 0x40 MLOAD PUSH0 PUSH1 0x40 MLOAD DUP1 DUP4 SUB DUP2 DUP6 DUP9 DUP9 CALL SWAP4 POP POP POP POP ISZERO DUP1 ISZERO PUSH2 0xF8 JUMPI RETURNDATASIZE PUSH0 DUP1 RETURNDATACOPY RETURNDATASIZE PUSH0 REVERT JUMPDEST POP JUMP JUMPDEST CALLVALUE PUSH1 0x1 PUSH0 CALLER PUSH20 0xFFFFFFFFFFFFFFFFFFFFFFFFFFFFFFFFFFFFFFFF AND PUSH20 0xFFFFFFFFFFFFFFFFFFFFFFFFFFFFFFFFFFFFFFFF AND DUP2 MSTORE PUSH1 0x20 ADD SWAP1 DUP2 MSTORE PUSH1 0x20 ADD PUSH0 KECCAK256 DUP2 SWAP1 SSTORE POP PUSH0 PUSH9 0x2B5E3AF16B1880000 SWAP1 POP DUP1 PUSH2 0x154 CALLVALUE PUSH2 0x198 JUMP JUMPDEST SLT ISZERO PUSH2 0x195 JUMPI PUSH1 0x40 MLOAD PUSH32 0x8C379A000000000000000000000000000000000000000000000000000000000 DUP2 MSTORE PUSH1 0x4 ADD PUSH2 0x18C SWAP1 PUSH2 0x2CF JUMP JUMPDEST PUSH1 0x40 MLOAD DUP1 SWAP2 SUB SWAP1 REVERT JUMPDEST POP JUMP JUMPDEST PUSH0 DUP1 PUSH2 0x1A2 PUSH2 0x1D0 JUMP JUMPDEST SWAP1 POP PUSH0 PUSH8 0xDE0B6B3A7640000 DUP5 DUP4 PUSH2 0x1BA SWAP2 SWAP1 PUSH2 0x323 JUMP JUMPDEST PUSH2 0x1C4 SWAP2 SWAP1 PUSH2 0x3C6 JUMP JUMPDEST SWAP1 POP DUP1 SWAP3 POP POP POP SWAP2 SWAP1 POP JUMP JUMPDEST PUSH0 DUP1 PUSH20 0x694AA1769357215DE4FAC081BF1F309ADC325306 SWAP1 POP PUSH0 DUP2 PUSH20 0xFFFFFFFFFFFFFFFFFFFFFFFFFFFFFFFFFFFFFFFF AND PUSH4 0xFEAF968C PUSH1 0x40 MLOAD DUP2 PUSH4 0xFFFFFFFF AND PUSH1 0xE0 SHL DUP2 MSTORE PUSH1 0x4 ADD PUSH1 0xA0 PUSH1 0x40 MLOAD DUP1 DUP4 SUB DUP2 DUP7 GAS STATICCALL ISZERO DUP1 ISZERO PUSH2 0x233 JUMPI RETURNDATASIZE PUSH0 DUP1 RETURNDATACOPY RETURNDATASIZE PUSH0 REVERT JUMPDEST POP POP POP POP PUSH1 0x40 MLOAD RETURNDATASIZE PUSH1 0x1F NOT PUSH1 0x1F DUP3 ADD AND DUP3 ADD DUP1 PUSH1 0x40 MSTORE POP DUP2 ADD SWAP1 PUSH2 0x257 SWAP2 SWAP1 PUSH2 0x4CE JUMP JUMPDEST POP POP POP SWAP2 POP POP PUSH5 0x2540BE400 DUP2 PUSH2 0x26E SWAP2 SWAP1 PUSH2 0x323 JUMP JUMPDEST SWAP3 POP POP POP SWAP1 JUMP JUMPDEST PUSH0 DUP3 DUP3 MSTORE PUSH1 0x20 DUP3 ADD SWAP1 POP SWAP3 SWAP2 POP POP JUMP JUMPDEST PUSH32 0x596F75206E65656420746F207370656E64206D6F726520657468000000000000 PUSH0 DUP3 ADD MSTORE POP JUMP JUMPDEST PUSH0 PUSH2 0x2B9 PUSH1 0x1A DUP4 PUSH2 0x275 JUMP JUMPDEST SWAP2 POP PUSH2 0x2C4 DUP3 PUSH2 0x285 JUMP JUMPDEST PUSH1 0x20 DUP3 ADD SWAP1 POP SWAP2 SWAP1 POP JUMP JUMPDEST PUSH0 PUSH1 0x20 DUP3 ADD SWAP1 POP DUP2 DUP2 SUB PUSH0 DUP4 ADD MSTORE PUSH2 0x2E6 DUP2 PUSH2 0x2AD JUMP JUMPDEST SWAP1 POP SWAP2 SWAP1 POP JUMP JUMPDEST PUSH0 DUP2 SWAP1 POP SWAP2 SWAP1 POP JUMP JUMPDEST PUSH32 0x4E487B7100000000000000000000000000000000000000000000000000000000 PUSH0 MSTORE PUSH1 0x11 PUSH1 0x4 MSTORE PUSH1 0x24 PUSH0 REVERT JUMPDEST PUSH0 PUSH2 0x32D DUP3 PUSH2 0x2ED JUMP JUMPDEST SWAP2 POP PUSH2 0x338 DUP4 PUSH2 0x2ED JUMP JUMPDEST SWAP3 POP DUP3 DUP3 MUL PUSH2 0x346 DUP2 PUSH2 0x2ED JUMP JUMPDEST SWAP2 POP PUSH32 0x8000000000000000000000000000000000000000000000000000000000000000 DUP5 EQ PUSH0 DUP5 SLT AND ISZERO PUSH2 0x37D JUMPI PUSH2 0x37C PUSH2 0x2F6 JUMP JUMPDEST JUMPDEST DUP3 DUP3 SDIV DUP5 EQ DUP4 ISZERO OR PUSH2 0x392 JUMPI PUSH2 0x391 PUSH2 0x2F6 JUMP JUMPDEST JUMPDEST POP SWAP3 SWAP2 POP POP JUMP JUMPDEST PUSH32 0x4E487B7100000000000000000000000000000000000000000000000000000000 PUSH0 MSTORE PUSH1 0x12 PUSH1 0x4 MSTORE PUSH1 0x24 PUSH0 REVERT JUMPDEST PUSH0 PUSH2 0x3D0 DUP3 PUSH2 0x2ED JUMP JUMPDEST SWAP2 POP PUSH2 0x3DB DUP4 PUSH2 0x2ED JUMP JUMPDEST SWAP3 POP DUP3 PUSH2 0x3EB JUMPI PUSH2 0x3EA PUSH2 0x399 JUMP JUMPDEST JUMPDEST PUSH1 0x1 PUSH0 SUB DUP4 EQ PUSH32 0x8000000000000000000000000000000000000000000000000000000000000000 DUP4 EQ AND ISZERO PUSH2 0x423 JUMPI PUSH2 0x422 PUSH2 0x2F6 JUMP JUMPDEST JUMPDEST DUP3 DUP3 SDIV SWAP1 POP SWAP3 SWAP2 POP POP JUMP JUMPDEST PUSH0 DUP1 REVERT JUMPDEST PUSH0 PUSH10 0xFFFFFFFFFFFFFFFFFFFF DUP3 AND SWAP1 POP SWAP2 SWAP1 POP JUMP JUMPDEST PUSH2 0x450 DUP2 PUSH2 0x432 JUMP JUMPDEST DUP2 EQ PUSH2 0x45A JUMPI PUSH0 DUP1 REVERT JUMPDEST POP JUMP JUMPDEST PUSH0 DUP2 MLOAD SWAP1 POP PUSH2 0x46B DUP2 PUSH2 0x447 JUMP JUMPDEST SWAP3 SWAP2 POP POP JUMP JUMPDEST PUSH2 0x47A DUP2 PUSH2 0x2ED JUMP JUMPDEST DUP2 EQ PUSH2 0x484 JUMPI PUSH0 DUP1 REVERT JUMPDEST POP JUMP JUMPDEST PUSH0 DUP2 MLOAD SWAP1 POP PUSH2 0x495 DUP2 PUSH2 0x471 JUMP JUMPDEST SWAP3 SWAP2 POP POP JUMP JUMPDEST PUSH0 DUP2 SWAP1 POP SWAP2 SWAP1 POP JUMP JUMPDEST PUSH2 0x4AD DUP2 PUSH2 0x49B JUMP JUMPDEST DUP2 EQ PUSH2 0x4B7 JUMPI PUSH0 DUP1 REVERT JUMPDEST POP JUMP JUMPDEST PUSH0 DUP2 MLOAD SWAP1 POP PUSH2 0x4C8 DUP2 PUSH2 0x4A4 JUMP JUMPDEST SWAP3 SWAP2 POP POP JUMP JUMPDEST PUSH0 DUP1 PUSH0 DUP1 PUSH0 PUSH1 0xA0 DUP7 DUP9 SUB SLT ISZERO PUSH2 0x4E7 JUMPI PUSH2 0x4E6 PUSH2 0x42E JUMP JUMPDEST JUMPDEST PUSH0 PUSH2 0x4F4 DUP9 DUP3 DUP10 ADD PUSH2 0x45D JUMP JUMPDEST SWAP6 POP POP PUSH1 0x20 PUSH2 0x505 DUP9 DUP3 DUP10 ADD PUSH2 0x487 JUMP JUMPDEST SWAP5 POP POP PUSH1 0x40 PUSH2 0x516 DUP9 DUP3 DUP10 ADD PUSH2 0x4BA JUMP JUMPDEST SWAP4 POP POP PUSH1 0x60 PUSH2 0x527 DUP9 DUP3 DUP10 ADD PUSH2 0x4BA JUMP JUMPDEST SWAP3 POP POP PUSH1 0x80 PUSH2 0x538 DUP9 DUP3 DUP10 ADD PUSH2 0x45D JUMP JUMPDEST SWAP2 POP POP SWAP3 SWAP6 POP SWAP3 SWAP6 SWAP1 SWAP4 POP JUMP INVALID LOG2 PUSH5 0x6970667358 0x22 SLT KECCAK256 COINBASE DUP16 0x27 GASLIMIT 0xCB DUP6 0x4F INVALID NOT JUMP 0x2C PUSH11 0xA72ABDA2DBD632C6BE9AFD 0xDD SHR BYTE 0xCA LOG4 0xE6 PUSH4 0xBD1A6473 PUSH16 0x6C634300081600330000000000000000 "
		},
		"gasEstimates": {
			"creation": {
				"codeDepositCost": "280600",
				"executionCost": "24581",
				"totalCost": "305181"
			},
			"external": {
				"Send()": "infinite",
				"Withdraw()": "infinite"
			},
			"internal": {
				"getConversionRate(int256)": "infinite",
				"getPrice()": "infinite"
			}
		},
		"methodIdentifiers": {
			"Send()": "92d282c1",
			"Withdraw()": "57ea89b6"
		}
	},
	"abi": [
		{
			"inputs": [],
			"stateMutability": "nonpayable",
			"type": "constructor"
		},
		{
			"inputs": [],
			"name": "Send",
			"outputs": [],
			"stateMutability": "payable",
			"type": "function"
		},
		{
			"inputs": [],
			"name": "Withdraw",
			"outputs": [],
			"stateMutability": "payable",
			"type": "function"
		}
	]
}